:020000040800F2
:10000000D81A0020D5010008656C0008BB1B000849
:10001000616C0008F106000885750008000000000A
:10002000000000000000000000000000AB710008AC
:10003000F506000800000000E96F000803720008E0
:10004000EF010008EF010008EF010008EF010008D0
:10005000EF010008EF010008EF010008EF010008C0
:10006000EF010008EF010008EF010008EF010008B0
:10007000EF010008EF010008EF010008EF010008A0
:10008000EF010008EF010008EF010008EF01000890
:10009000EF010008EF010008EF010008EF01000880
:1000A000EF010008EF010008EF010008EF01000870
:1000B000EF010008EF010008EF010008EF01000860
:1000C000EF010008EF010008EF010008EF01000850
:1000D000EF01000869750008EF010008EF01000852
:1000E000EF010008EF010008EF010008EF01000830
:1000F000EF010008EF010008EF010008EF01000820
:10010000EF010008EF010008EF010008EF0100080F
:10011000EF010008EF010008EF010008EF010008FF
:10012000EF010008EF010008EF010008EF010008EF
:1001300000F002F800F03FF80AA090E8000C8244BA
:100140008344AAF10107DA4501D100F034F8AFF297
:10015000090EBAE80F0013F0010F18BFFB1A43F0A5
:10016000010318474495000064950000103A24BF2D
:1001700078C878C1FAD8520724BF30C830C144BF0C
:1001800004680C607047000000230024002500264E
:10019000103A28BF78C1FBD8520728BF30C148BFEA
:1001A0000B607047732900F01082002070471FB564
:1001B0001FBD10B510BD00F06CFA1146FFF7F7FF38
:1001C00007F0F2FA00F08AFA03B4FFF7F2FF03BC7B
:1001D00007F0FDF90948804709480047FEE7FEE7B8
:1001E000FEE7FEE7FEE7FEE7FEE7FEE7FEE7FEE7E7
:1001F00004480549054A064B704700000D72000887
:1002000031010008D8140020D81A0020D816002088
:10021000D8160020704700000FB4044910B503AA97
:10022000029800F0D7F910BC5DF814FB50000020D4
:100230000FB41CB5074B06AA7B446946009005988D
:1002400000F099F90020694600F0A8F91CBC5DF89F
:1002500014FB00006103000070B504468569006866
:10026000C10601D5302600E02026C00707D070BDAA
:10027000D4E9012130469047206A401C20626D1E5F
:10028000F6D570BD70B5044685690078C00707D102
:1002900070BDD4E9012120209047206A401C2062D3
:1002A0006D1EF6D570BD70B50C460546012A05D009
:1002B0002878800600D5EA69002302E0012305E0E2
:1002C0005B1C934202D2E05C0028F9D1A869E618D1
:1002D000C01AA861286A184428622846FFF7BCFFA4
:1002E00004E0D5E9012114F8010B9047B442F8D39A
:1002F0002846FFF7C7FF70BD2DE9F0474FF0000A11
:1003000089460446C0F820A02046E16888470028B6
:1003100076D0252806D0D4E901219047206A401CD8
:100320002062F1E7E168204600258847C4F81CA058
:1003300006460027C4F818A02A2E09D0304607F038
:100340003FF938B304EB8708303EC8F8186019E06D
:1003500059F8041B204604EB87029161E168884745
:10036000012F064618D1E069002820DA25F0200583
:100370001DE0D8F8180000EB800006EB4000303894
:10038000C8F818002046E1688847064607F018F9C3
:100390000028EED1012F0AD02E2E08D12046E16888
:1003A00088477F1C0646022F45F02005C4DBA06964
:1003B000002803DA404245F00105A061E80701D0BA
:1003C00025F01005B6B1A6F14100192802D8203653
:1003D00045F400654A463146204625604D46FFF704
:1003E000E1FE58B1012806D0ED1D25F0070000F10F
:1003F000080989E704E005F1040985E730468AE742
:10040000206ABDE8F08740EA0103024630B59B0749
:1004100010D14FF0013400E008C208C91D1B9D43F4
:1004200015EAC41FF8D013F0FF0102F8011B0DD02C
:100430001B0AF8E711F8013B002B02F8013B05D03D
:1004400011F8013B002B02F8013BF3D130BD10B590
:10045000431C02E010F8011B71B18107FAD14FF083
:10046000013202C88C1A8C4314EAC211F9D0C01AA6
:100470000A0603D0C01E10BDC01A10BD0A0401D068
:10048000801E10BD0902FCD0401E10BD10B50446F0
:1004900010F0030F08BF11F0030F40F015804FF06C
:1004A000013E121FC0F20E8051F8043BA3EB0E0C6C
:1004B0002CEA030C1CEACE1C08BF40F8043BF0D029
:1004C000A1F1040102F10402521E08DB11F8013B04
:1004D000002B00F8013BF7D1114600F08DF82046C3
:1004E00010BD00004FF0013C50F8042B51F8043BC4
:1004F0009A4221D1A2EB0C03934313EACC1317D1F8
:1005000050F8042B51F8043B9A4215D1A2EB0C038E
:10051000934313EACC130BD150F8042B51F8043B4E
:100520009A4209D1A2EB0C03934313EACC13DBD01C
:100530004FF00000704700BFD01A01BAB1FA81F144
:1005400001F0180122FA01F0CB40C1F12001DBB229
:10055000C0B2C01A2CFA01F3D11A914311EAC311A7
:10056000E6D17047704770477047704701694A1C71
:1005700002610878704700B58FB0CDE901310021E4
:10058000059105497944CDE9031011466846FFF706
:10059000B3FE0FB000BD0000E5FFFFFF0A6802F8E0
:1005A000010B0A60704710B5436913B1AFF30080C7
:1005B00001E0FFF778FE012010BD127800F1240160
:1005C0000A7000224A700122EDE711684FF0FF32F5
:1005D000E9E70000074B70B50D467B44FFF7CBFF02
:1005E0000446284600F02AF810B14FF0FF3070BDE5
:1005F000204670BD5F7100004FF000020429C0F07A
:10060000128010F0030C00F01F80CCF1040CBCF140
:10061000020F18BF00F8012BA8BF20F8022BA1EB96
:100620000C0100F011B85FEAC17C24BF00F8012B77
:1006300000F8012B48BF00F8012B7047007B00F049
:10064000800070474FF0000200B51346944696466E
:10065000203922BFA0E80C50A0E80C50B1F12001D5
:10066000BFF4F7AF090728BFA0E80C5048BF0CC083
:100670005DF804EB890028BF40F8042B08BF7047E1
:1006800048BF20F8022B11F0804F18BF00F8012B53
:100690007047754600F028F8AE4605006946534697
:1006A00020F00700854618B020B5FFF7A1FDBDE892
:1006B00020404FF000064FF000074FF000084FF0C9
:1006C000000B21F00701AC46ACE8C009ACE8C0095A
:1006D000ACE8C009ACE8C0098D4670470446AFF3EA
:1006E00000802046FFF770FD004870477814002016
:1006F00000BFFEE77047000070B50446002594F87F
:100700002100022803D00420A0630125C1E0206855
:10071000006820F00E00216808602068006820F062
:100720000100216808605C492068884252D95A4912
:1007300078392068884201D1012047E05649643960
:100740002068884201D1102040E053495039206888
:10075000884201D1801539E04F493C3920688842F0
:1007600001D1801432E04C4928392068884202D1F6
:100770004FF480302AE0484914392068884202D179
:100780004FF4801022E044492068884201D140049F
:100790001CE042492068884201D1012016E03F490F
:1007A00014312068884201D110200FE03B492831E4
:1007B0002068884201D1801508E038493C31206822
:1007C000884201D1801401E04FF480303349091F81
:1007D000086051E0304978392068884201D1012011
:1007E00047E02D4964392068884201D1102040E05B
:1007F000294950392068884201D1801539E02649BD
:100800003C392068884201D1801432E022492839DD
:100810002068884202D14FF480302AE01E49143902
:100820002068884202D14FF4801022E01A492068E3
:10083000884201D140041CE018492068884201D157
:10084000012016E0154914312068884201D110209A
:100850000FE0124928312068884201D1801508E054
:100860000E493C312068884201D1801401E04FF4E8
:100870008030094980394860012084F8210000BF98
:10088000002084F8200000BF606B10B12046616B2F
:100890008847284670BD00008000024008040240DE
:1008A0002DE9F847024600239C467BE14FF0010802
:1008B00008FA03F4D1F8008008EA0400A0427DD1D0
:1008C000DFF8F4A2D1F80480A8EB0A09D0453AD0A9
:1008D00014DCB8F1030F50D009DCB8F1000F31D0AF
:1008E000B8F1010F1CD0B8F1020F49D120E0B8F1E6
:1008F000110F18D0B8F1120F42D11EE0B9F5881FC0
:1009000025D006DCB9F5803F20D0B9F5801F37D15E
:100910001AE0B9F5001F18D0B9F5041F30D117E05F
:10092000D1F80CC02DE0D1F80C8008F1040C28E0BF
:10093000D1F80C8008F1080C23E0D1F80C8008F104
:100940000C0C1EE000BF00BF00BF00BF00BF00BF17
:10095000D1F80880B8F1000F02D14FF0040C0BE081
:10096000D1F80880B8F1010F03D14FF0080C1461E1
:1009700002E04FF0080C546103E04FF0000C00E07F
:1009800000BF00BFFF2801D8904601E002F1040833
:100990004646FF2802D84FEA830803E0A3F108087F
:1009A0004FEA88084746D6F800804FF00F0909FA49
:1009B00007F928EA09080CFA07F900E07AE048EAA2
:1009C0000908C6F80080D1F8048008F08058B8F112
:1009D000805F6FD100BFDFF8E481D8F8188048F05D
:1009E0000108DFF8D891C9F81880C846D8F81880EF
:1009F00008F00108CDF8008000BF00BF4FEAB93809
:100A00004FEA930958F829504FEA83784FEA18794A
:100A10004FF00F0808FA09F825EA0805DFF8A08169
:100A2000424502D14FF0000824E0DFF898814245AA
:100A300002D14FF001081DE0DFF88C81424502D160
:100A40004FF0020816E0DFF88481424502D14FF0F2
:100A500003080FE0DFF87881424502D14FF0040827
:100A600008E0DFF87081424502D14FF0050801E04F
:100A70004FF006084FEA83794FEA197908FA09F826
:100A800048EA0505DFF850814FEA930948F82950F4
:100A9000D1F8048008F48038B8F5803F0BD1DFF836
:100AA0003C81D8F8008048EA0008DFF83091C9F8A6
:100AB00000800AE075E0DFF82481D8F8008028EA99
:100AC0000008DFF81891C9F80080D1F8048008F414
:100AD0000038B8F5003F0ED1DFF8008108F10408B6
:100AE000D8F8008048EA0008DFF8F09009F104091E
:100AF000C9F800800DE0DFF8E48008F10408D8F8B8
:100B0000008028EA0008DFF8D49009F10409C9F848
:100B10000080D1F8048008F48018B8F5801F0ED149
:100B2000DFF8B88008F10808D8F8008048EA000823
:100B3000DFF8A89009F10809C9F800800DE0DFF896
:100B40009C8008F10808D8F8008028EA0008DFF83F
:100B50008C9009F10809C9F80080D1F8048008F4E4
:100B60000018B8F5001F0ED1DFF8708008F10C08EE
:100B7000D8F8008048EA0008DFF8609009F10C0915
:100B8000C9F800800DE0DFF8548008F10C08D8F8AF
:100B9000008028EA0008DFF8449009F10C09C9F840
:100BA00000805B1CD1F8008028FA03F8B8F1000F30
:100BB0007FF47CAEBDE8F887000011100010024001
:100BC00000080140000C01400010014000140140E9
:100BD00000180140001C01400800014000040140D1
:100BE000024693680B400BB1012000E000207047E3
:100BF0000AB1016101E00B0403617047014800681C
:100C0000704700004000002003480068034909784D
:100C10000844014908607047400000204800002057
:100C200010B50848006840F010000649086005202B
:100C300000F080F80F2000F007F800F02BF80020FB
:100C400010BD00000020024070B504460E48007838
:100C50004FF47A71B1FBF0F00C490968B1FBF0F583
:100C6000284600F0ECFD08B1012070BD102C07D221
:100C700000222146501E00F01EF80548046001E0E5
:100C80000120F2E70020F0E7480000203C000020AF
:100C900044000020704701460846002809DB00F0A8
:100CA0001F0301229A4043099B0003F1E023C3F88C
:100CB000002100BF70472DE9F05F80460D461646C3
:100CC000002706F061FC074639462A46334601F004
:100CD0000700C0F1070ABAF1040F02D94FF0040A65
:100CE00001E0C0F1070AD14600F1040ABAF1070F8A
:100CF00002D24FF0000A01E0A0F1030AD4464FF0FF
:100D0000010A0AFA09FAAAF1010A0AEA020A0AFA27
:100D10000CFA4FF0010B0BFA0CFBABF1010B0BEAD9
:100D2000030B4AEA0B042146404606F035FCBDE8B9
:100D3000F09F000000BF00F00702064B19684FF655
:100D4000FF031940044B0B4343EA0221014B196096
:100D500000BF70470CED00E00000FA0570B50446D6
:100D60000D460CB9012070BD5A48006800F007001C
:100D7000A8420ED25748006820F007002843554982
:100D800008600846006800F00700A84201D0012072
:100D9000E9E7207800F0020002281DD1207800F059
:100DA0000400042805D14C48406840F4E0604A49FA
:100DB0004860207800F00800082805D146484068BF
:100DC00040F46050444948604348406820F0F000D7
:100DD000A168084340494860207800F0010078B3DA
:100DE0006068012806D13C48006800F4003090B9E2
:100DF0000120B8E76068022806D13748006800F093
:100E0000007040B90120AEE73348006800F00200EE
:100E100008B90120A7E73048406820F00300616866
:100E200008432D494860FFF7E9FE064609E0FFF751
:100E3000E5FE801B41F28831884202D9032092E707
:100E400007E02548406800F00C006168B0EB810FB6
:100E5000EDD12048006800F00700A8420ED91D48D7
:100E6000006820F0070028431A4908600846006817
:100E700000F00700A84201D0012074E7207800F0BC
:100E80000400042807D11448406820F4E060E168B9
:100E9000084311494860207800F00800082808D16C
:100EA0000D48406820F46050216940EAC1000A49B9
:100EB000486000F03FF808494968C1F30311074A48
:100EC000515CC8400649086006480068FFF7BCFE50
:100ED000002048E70020024000100240C47E0008C5
:100EE0003C000020440000200148006870470000DA
:100EF0003C00002000B5FFF7F7FF04494968C1F343
:100F00000221034A515CC84000BD000000100240AD
:100F1000D47E000800B5FFF7E7FF04494968C1F334
:100F2000C221034A515CC84000BD000000100240CD
:100F3000D47E0008F0B585B00FF26C0C9CE8E01090
:100F400001A8A0E8E0101CA52D6800950021002252
:100F5000002300240020194D696801F00C05F5B14B
:100F6000042D02D0082D19D101E0154819E001AD7A
:100F7000C1F38346AC5D01F4803555B10F4D6D680A
:100F8000C5F340451DF805200D4D6543B5FBF2F353
:100F900002E00C4D04FB05F3184602E000BF0848D0
:100FA00000BF00BF05B0F0BD020304050607080935
:100FB0000A0B0C0D0E0F1010010200000010024071
:100FC00000127A0000093D00F8B504460CB9012072
:100FD000F8BD207800F00100002878D0F84840687B
:100FE00000F00C0004280CD0F548406800F00C001C
:100FF000082811D1F248406800F48030B0F5803FF5
:101000000AD1EF48006800F4003000285FD0606823
:1010100000285CD10120DBE700BF6068B0F5803FAD
:1010200006D1E748006840F48030E549086028E0D0
:10103000606858B9E248006820F48030E0490860F0
:101040000846006820F4802008601AE06068B0F567
:10105000A02F0BD1DA48006840F48020D8490860FE
:101060000846006840F4803008600AE0D448006810
:1010700020F48030D24908600846006820F48020BF
:10108000086000BF606888B1FFF7B8FD054606E05C
:10109000FFF7B4FD401B642801D9032098E7C84836
:1010A000006800F400300028F2D010E0FFF7A6FD41
:1010B000054606E0FFF7A2FD401B642801D9032086
:1010C00086E7BF48006800F400300028F2D120789D
:1010D00000F00200022857D1B948406800F00C0027
:1010E00050B1B748406800F00C00082818D1B44847
:1010F000406800F4803098B9B148006800F0020000
:1011000020B12069012801D0012061E7AC480068C6
:1011100020F0F800616940EAC100A949086033E0A5
:101120002069E8B10120A7490860FFF767FD05467F
:1011300006E0FFF763FD401B022801D9032047E7C3
:101140009F48006800F002000028F2D09C48006828
:1011500020F0F800616940EAC1009949086013E095
:10116000002098490860FFF749FD054606E0FFF7B3
:1011700045FD401B022801D9032029E7904800685B
:1011800000F002000028F2D1207800F008000828C2
:101190002DD1A069B8B101208B490860FFF72EFD61
:1011A000054606E0FFF72AFD401B022801D903206F
:1011B0000EE78348406A00F002000028F2D00120C8
:1011C00005F014FF13E000207F490860FFF716FDCB
:1011D000054606E0FFF712FD401B022801D9032057
:1011E000F6E67748406A00F002000028F2D1207845
:1011F00000F00400042873D100277148C06900F092
:10120000805070B900BF6E48C06940F080506C4992
:10121000C8610846C06900F08050009000BF00BF60
:1012200001276A48006800F48070B0B96748006818
:1012300040F4807065490860FFF7E0FC054606E071
:10124000FFF7DCFC401B642801D90320C0E65F489F
:10125000006800F480700028F2D000BFE068012828
:1012600006D15748006A40F001005549086227E05E
:10127000E06858B95248006A20F0010050490862FD
:101280000846006A20F00400086219E0E0680528BA
:101290000BD14B48006A40F00400494908620846F7
:1012A000006A40F0010008620AE04548006A20F048
:1012B0000100434908620846006A20F00400086201
:1012C00000BFE068A0B1FFF799FC054609E0FFF711
:1012D00095FC401B41F28831884202D9032077E611
:1012E00022E03748006A00F002000028EFD012E048
:1012F000FFF784FC054608E0FFF780FC401B41F245
:101300008831884201D9032062E62D48006A00F046
:1013100002000028F0D1012F05D12948C06920F032
:1013200080502749C86100BFE069C8B324484068BD
:1013300000F00C00082860D0E069022848D10020A5
:1013400020490866FFF75AFC054606E0FFF756FC01
:10135000401B022801D903203AE61948006800F032
:1013600000700028F2D1206AB0F5803F07D1144800
:10137000406820F40030A168084311494860D4E96E
:10138000080108430E49496821F4741108430C49C7
:10139000486001200B490866FFF730FC054607E06E
:1013A0003DE0FFF72BFC401B022801D903200FE68C
:1013B0000348006800F000700028F2D02FE0000021
:1013C000001002400000424280044242007000408F
:1013D000002014490866FFF711FC054606E0FFF7F8
:1013E0000DFC401B022801D90320F1E50E480068DE
:1013F00000F000700028F2D111E0E069012800D16E
:10140000E6E50948466806F48031206A814204D145
:1014100006F47011606A814201D00120D8E50020F5
:10142000D6E50000000042420010024010B504461C
:101430000CB9012010BD606A00B900BFA06AB0F508
:10144000005F00D100BF94F8510028B9002084F853
:101450005000204600F038F8022084F8510020683F
:10146000006820F0400021680860D4E901010843C9
:10147000E16808432169084361690843218B01F44D
:1014800000710843E1690843216A0843A16A0843DF
:10149000216808600421A06901EA104021684860C1
:1014A000A06AB0F5005F02D12168E06A0861206897
:1014B000C06920F400602168C861002060650120D7
:1014C00084F851000020B5E710B586B0044600BF8F
:1014D0001348806940F0040011498861084680691A
:1014E00000F00400019000BF00BF00BF0846806903
:1014F00040F4805088610846806900F48050019073
:1015000000BF00BFE0200290022003900120049061
:101510000320059002A90348FFF7C2F906B010BDE9
:1015200000100240000801402DE9FF5F0446884694
:1015300091461D460E9E012002900020019000BFA2
:1015400094F85000012803D1022004B0BDE8F09FB8
:10155000012084F8500000BFFFF750FB074694F8C5
:1015600051B060680390AA46BBF1010F0BD00398FD
:10157000B0F5827F04D1A06810B9BBF1040F02D08E
:10158000022001903DE1B8F1000F03D0B9F1000F46
:1015900000D015B90120019033E194F851000428DE
:1015A00002D0052084F8510000206065C4F838900E
:1015B000E587A587C4F83080E586A5862064606449
:1015C000A06AB0F5005F0DD100BF2068006820F46C
:1015D0000050216808602068006840F400502168CD
:1015E000086000BF2068006800F04000402805D077
:1015F0002068006840F0400021680860E068B0F5AD
:10160000006F56D1606810B1BAF1010F09D1206B9B
:1016100000882168C860206B801C2063E08E401E1B
:10162000E0863FE02068806800F0020002281CD1BC
:10163000E08ED0B10298012817D1206B0088216874
:10164000C860206B801C2063E08E401EE086002076
:101650000290E08E48B9A06AB0F5005F05D120681D
:10166000006840F48050216808602068806800F0BD
:10167000010068B1E08F58B12068C068A16B088094
:10168000A06B801CA063E08F401EE08701200290C9
:10169000FFF7B4FAC01BB04204D3701C10B1032092
:1016A0000190AEE0E08E0028BCD1E08F0028B9D1D7
:1016B00056E0606810B1BAF1010F09D1206B0078D3
:1016C00021680873206B401C2063E08E401EE0867A
:1016D00040E02068806800F0020002281CD1E08E03
:1016E000D0B10298012817D1206B007821680873C7
:1016F000206B401C2063E08E401EE086002002909C
:10170000E08E48B9A06AB0F5005F05D12068006896
:1017100040F48050216808602068806800F0010073
:1017200068B1E08F58B12068C068A16B0870A06BE9
:10173000401CA063E08F401EE08701200290FFF76D
:101740005DFAC01BB04201D3701C00B916B903206A
:10175000019056E0E08E0028BBD1E08F0028B8D180
:10176000A06AB0F5005F10D1334601221146204631
:10177000009705F0C6FC30B1606D40F00200606576
:10178000032001903DE02068C06820688068C0F3B5
:101790000010E8B1204605F0B1FC012814D1606DBD
:1017A00040F00200606500BF2068006820F400502F
:1017B000216808602068006840F4005021680860D3
:1017C00000BF0120019003E04FF6EF7021688860B0
:1017D0003A463146204605F07DFC20B101200190BB
:1017E000202060650DE0A06850B900BF0020009087
:1017F0002068C068009020688068009000BF00BF2B
:1018000000BF012084F8510000BF002084F8500080
:1018100000BF019899E6042808D14FF0E02109693A
:1018200041F004014FF0E022116107E04FF0E021A8
:10183000096921F004014FF0E0221161704770B591
:1018400004462546681EB0F1807F01D301200FE0D9
:10185000681E4FF0E02148610F214FF0FF3005F086
:101860009BFE00204FF0E0218861072008610020E6
:1018700070BD70472DE9F047044620680568206870
:10188000C668206847694FF00008C14605F00F0898
:10189000B8F1000F0AD105F0200038B106F02000A1
:1018A00020B1204605F008FDBDE8F087B8F1000F33
:1018B0006DD007F0010018B906F49070002866D0CA
:1018C00005F0010030B106F4807018B1E06B40F013
:1018D0000100E06305F0040030B107F0010018B129
:1018E000E06B40F00200E06305F0020030B107F069
:1018F000010018B1E06B40F00400E06305F008005F
:1019000030B107F0010018B1E06B40F00800E0636F
:10191000E06B68B305F0200028B106F0200010B19C
:10192000204605F0C9FC20684069C0F38019E06BCF
:1019300000F0080010B9B9F1000F22D0204605F0E0
:101940009BFC2068406900F04000B0B1206840690D
:1019500020F0400021684861606B50B11748616B0E
:101960004863606BFEF7C8FE10B1606B416B88473F
:101970000CE02046FFF77DFF08E02046FFF779FFE7
:1019800004E02046FFF775FF0020E0638CE705F0D8
:10199000800030B106F0800018B1204605F0B0FD9F
:1019A00082E705F0400030B106F0400018B1204653
:1019B00005F072FC78E700BF76E70000657200086A
:1019C00010B504460CB9012010BDA06900B100E0BB
:1019D00000BF94F8390028B9002084F83800204668
:1019E00000F028F8242084F839002068C06820F42A
:1019F00000502168C860204605F0B2FC20680069EC
:101A000020F49040216808612068406920F02A0095
:101A1000216848612068C06840F400502168C860AF
:101A20000020E063202084F8390084F83A00002088
:101A3000CAE7000010B586B00446254920688842F0
:101A400044D100BF2348806940F0040021498861E7
:101A50000846806900F00400019000BF00BF00BF8D
:101A60000846806940F4804088610846806900F437
:101A70008040019000BF00BF00BF0846806940F071
:101A8000010088610846806900F00100019000BFF4
:101A900000BF48150290022003900120049003200B
:101AA000059002A90C48FEF7FBFE4FF480600290FF
:101AB0000020039002A90848FEF7F2FE2520FFF758
:101AC000EAF8032211462520FFF7F5F806B010BD0D
:101AD00000380140001002400008014010B50346E4
:101AE00093F83A0020282FD101B10AB9012010BD86
:101AF00000BF93F83800012801D10220F7E7012048
:101B000083F8380000BF99629A85DA850020D8638F
:101B1000222083F83A0000BF002083F8380000BF7D
:101B20001868C06840F480701C68E06018684069FC
:101B300040F001001C6860611868C06840F0200037
:101B40001C68E0600020D2E70220D0E710B5044610
:101B500012492068884220D1114800780A280ED105
:101B600000201049104A126888540F4908600D4936
:101B70000EA0FEF751FB0B4805F04AFF0DE00848A8
:101B800000780D2809D006480178074802680068E7
:101B9000401C054B18600348815410BD00380140BB
:101BA00089000020070300203800002053656E6480
:101BB0003A2025730A000000704700BFFEE70000CE
:101BC00000B585B000BF1C48806940F004001A4988
:101BD00088610846806900F00400009000BF00BFE3
:101BE00000BF0846806940F010008861084680699F
:101BF00000F01000009000BF00BF01200190002005
:101C00000290022003900320049001A90B48FEF7E4
:101C100047FE4FF4004001900120039001A90748BE
:101C2000FEF73EFE202001900120039001A9044808
:101C3000FEF736FE05B000BD00100240000801406E
:101C40000010014010B50446012C01D12449087050
:101C50002348007868B320212248FEF7C1FF58B11D
:101C60004FF400412048FEF7BBFF28B101211E4878
:101C7000FEF7B6FF01281CD10A2005F02FFD002039
:101C80001749087020211748FEF7AAFF08B901205C
:101C900010BD4FF400411448FEF7A2FF08B902201E
:101CA000F6E701211048FEF79BFF012815D103201C
:101CB000EEE720210B48FEF793FF01280DD1C10369
:101CC0000948FEF78DFF012807D101210648FEF7DC
:101CD00087FF10B90120024908700020D8E70000F2
:101CE0005C000020001001400008014070B504466F
:101CF00000261D480588408845431B48808846F6D5
:101D00000401884216D118488079012812D1002098
:101D1000154988712A2048812B2088810021084696
:101D200004F074FC0120104988712B2048812A207E
:101D3000888103E00021084604F068FC04F030FFCD
:101D400000260DE04FF480700849086140004861AA
:101D50000748046080204861086180000861761CA3
:101D6000AE42EFD370BD00001014002000100140FF
:101D70000C0C014010B50446002C66D16C498871EA
:101D8000F02008804FF4A07048800846808849F20F
:101D9000413188420BD06648808846F6040188426B
:101DA00005D06348808845F2103188421AD12C2032
:101DB0005F4908812A2048812B2088810846808835
:101DC00046F60401884205D05948808845F2103112
:101DD000884206D14FF4A070554908804FF4F07046
:101DE0004880A1E05248808845F21051884210D1C5
:101DF0004FF430504E4908814FF4285048814FF439
:101E00002C5088814FF4F07008804FF4487048805F
:101E10008AE04748808841F6631188420DD12C2022
:101E2000434908812B2048812A2088814FF4F07093
:101E300008804FF44870488076E022203C490881B1
:101E400020204881212088816EE001203849887156
:101E50004FF4A0700880F02048800846808849F23E
:101E60004131884205D03248808845F2103188429D
:101E700007D12C202E4908812A2048812B208881D7
:101E80003FE02B48808846F60401884207D12C2089
:101E9000274908812B2048812A20888131E0244865
:101EA000808845F21051884210D14FF430502049BB
:101EB00008814FF4285048814FF42C5088814FF40A
:101EC000487008804FF4F07048801AE01848808805
:101ED00041F6631188420DD12C20154908812A2032
:101EE00048812B2088814FF4487008804FF4F070AF
:101EF000488006E022200E490881212048812020C8
:101F000088810B48808846F60401884205D008483D
:101F1000808845F21031884206D14FF4F0700449B0
:101F200008804FF4A0704880002004F043F910BDF1
:101F3000101400202DE9FF4F84B081468A4600200E
:101F4000039002900698A0EB09050798A0EB0A06FB
:101F5000CDF80490CDF800A0002D01DD012705E0AB
:101F60000DB9002702E04FF0FF376D42002E02DD71
:101F70004FF0010806E016B94FF0000802E04FF0FC
:101F8000FF387642B54201DD2C4600E034464FF082
:101F9000000B21E0009A91B2019A90B200F022F871
:101FA0000398284403900298304402900398A0427A
:101FB00005DD0398001B03900198384401900298B6
:101FC000A04205DD0298001B02900098404400905A
:101FD0000BF101001FFA80FB601C8345DADD08B0BD
:101FE000BDE8F08F30B504460D462946204604F082
:101FF0000DFB04F0D5FD4FF48070074908614000E7
:102000004861064800880649086080200249486106
:1020100008618000086130BD0010014058000020B8
:102020000C0C0140F0B504460D4616461F462B46E3
:10203000324629462046FFF77DFF3B462246294689
:102040002046FFF777FF3B46324639462046FFF7EA
:1020500071FF3B46324629463046FFF76BFFF0BD25
:1020600070B504460D461646D348808849F2413182
:10207000884205D0D048808845F21031884240D14E
:10208000CD49488904F07AFD4FF48070CB4908614E
:10209000400048612012CA4908608020C749486151
:1020A0000861800008614010086140004861E0B2AA
:1020B000C34908608020C149486108618000086107
:1020C000BD49888904F05AFD4FF48070BB4908610E
:1020D000400048612812BA4908608020B749486129
:1020E0000861800008614010086140004861E8B262
:1020F000B34908608020B1494861086180000861E7
:102100003DE1AD48808845F21051884250D1AA493E
:10211000488904F033FD4FF48070A84908614000FD
:1021200048612012A64908608020A44948610861DE
:1021300080000861A0494989491C88B204F01EFD4D
:102140004FF480709D49086140004861E0B29C49AD
:1021500008608020994948610861800008619649BB
:10216000888904F00BFD4FF48070944908614000A9
:1021700048612812924908608020904948610861AE
:10218000800008618C498989491C88B204F0F6FCFA
:102190004FF480708949086140004861E8B288497D
:1021A0000860802085494861086180000861E6E098
:1021B0008148808841F6631188427DD17E488079CC
:1021C00020B97D480088401E001B84B27A494889A6
:1021D00004F0D4FC4FF480707849086140004861F5
:1021E00020127749086080207449486108618000A6
:1021F00008614010086140004861E0B27049086021
:1022000080206E49486108618000086140100861C3
:102210004000486120126A4908608020674948618F
:102220000861800008614010086140004861E0B228
:102230006349086080206149486108618000086145
:102240005D49888904F09AFC4FF480705B4908610D
:102250004000486128125A49086080205749486167
:102260000861800008614010086140004861E8B2E0
:102270005349086080205149486108618000086125
:10228000401008614000486128124D4908608020D4
:102290004A494861086180000861401008614000B7
:1022A0004861E8B2464908608020444948610861B5
:1022B0008000086163E0FFE73F48808846F604013C
:1022C000884249D13C488079012804D13A480088A5
:1022D000401E001B84B23849488904F04FFC4FF47B
:1022E0008070364908614000486120123449086016
:1022F000802032494861086180000861401008610F
:1023000040004861E0B22E49086080202B494861B6
:102310000861800008612849888904F02FFC4FF487
:1023200080702649086140004861281224490860ED
:1023300080202249486108618000086140100861DE
:1023400040004861E8B21E49086080201B4948618E
:1023500008618000086112E017488079012804D1E3
:1023600015480088401E001B84B213494889214645
:1023700004F01EFC10498889294604F019FC4FF42A
:1023800080700E494861400048610B4800890C4943
:102390000860802009494861086180000861401098
:1023A0000861400048610648066080204861086175
:1023B0008000086170BD0000101400200010014072
:1023C0000C0C01402DE9FC4F05460E461746984679
:1023D000DDF82C90002001902C48808846F60401FE
:1023E000884229D129488079012825D1AB46354634
:1023F00026480088C01B401E86B2474623480088F6
:10240000A0EB0B00401E1FFA80F800201F498871C6
:102410002A2048812B20888143463A463146284667
:10242000CDF80090FFF7CEFF0120184988712B20CE
:1024300048812A20888127E0781B401C80B20190C7
:1024400034461FE02146284604F0E0F804F0A8FBDB
:102450004FF0000A11E04FF480700D490861400010
:1024600048610C48C0F800908020486108618000F5
:1024700008610AF101001FFA80FA01988245EADB3F
:10248000601C84B24445DDDDBDE8FC8F10140020E3
:10249000001001400C0C014000B585B000BFFE48A3
:1024A000806940F00800FC4988610846806900F0B6
:1024B0000800009000BF00BF00BF0846806940F0E0
:1024C000100088610846806900F01000009000BF8D
:1024D00000BF4FF4F86001900120029003900320A8
:1024E000049001A9ED48FEF7DBF94FF6FF7001906B
:1024F00001A9EB48FEF7D4F900BFEA49486820F08B
:10250000E06040F08060486000BF322005F0E6F8EF
:102510000121002004F04CFB322005F0DFF8002000
:1025200003F0D6FDE049888008468088FF280ADB52
:10253000084680884FF6FF71884204D0DA488088C8
:10254000B0F5134F7ED1D32004F018FB03F088FDC3
:1025500003F086FD03F084FDD34988800846808817
:102560004FF6FF7101EA0020CF49888003F078FD23
:10257000CD4989880843CC4988800846808849F23B
:10258000413188425ED0BF2004F0F8FA03F068FDC4
:1025900003F066FD03F064FD03F062FDC24988802C
:1025A000084680884FF6FF7101EA0020BE49888006
:1025B00003F056FDBC4989880843BB49888008461A
:1025C000808846F60401884274D0D42004F0D6FAFC
:1025D00003F046FD03F044FD03F042FDB24988805C
:1025E000084680884FF6FF7101EA0020AE498880D6
:1025F00003F036FDAC4989880843AB49888008461A
:10260000808845F21031884254D04FF45A4004F08B
:10261000B5FA03F025FD4FF45B4004F0AFFA03F088
:102620001FFDA1498880084680884FF6FF7101EAA6
:1026300000209D4988804FF45C4004F09FFA03F02D
:102640000FFD00E036E09849898808439649888064
:1026500008468088B0F5004F02D145F210508880BE
:102660009148808845F21051884223D0A12004F07F
:1026700085FA03F0F5FC8C49888003F0F1FC8A4967
:102680008880084680884FF6FF7101EA002086495D
:10269000888003F0E5FC8449898808438249888062
:1026A0000846808845F26171884203D141F6631083
:1026B0007D4988807C48808849F2413188427CD1BC
:1026C000CF2004F05BFA002004F046FAC12004F0A9
:1026D00043FA302004F040FAED2004F04FFA642071
:1026E00004F03AFA032004F037FA122004F034FA26
:1026F000812004F031FAE82004F040FA852004F04B
:102700002BFA102004F028FA7A2004F025FACB20C6
:1027100004F034FA392004F01FFA2C2004F01CFADB
:10272000002004F019FA342004F016FA022004F014
:1027300013FAF72004F022FA202004F00DFAEA2020
:1027400004F01CFA002004F007FA002004F004FA58
:10275000C02004F013FA1B2004F0FEF9C12004F09D
:102760000DFA012004F0F8F9C52004F007FA302032
:1027700004F0F2F9302004F0EFF9C72004F0FEF97C
:10278000B72004F0E9F9362004F0F8F9482004F005
:10279000E3F93A2004F0F2F9552004F0DDF9B12014
:1027A00004F0ECF9002004F0D7F91A2004F0D4F971
:1027B000B62004F0E3F90A2000E0A5E004F0CCF92B
:1027C000A22004F0C9F9F22004F0D8F9002004F0A6
:1027D000C3F9262004F0D2F9012004F0BDF9E0206D
:1027E00004F0CCF90F2004F0B7F92A2004F0B4F972
:1027F000282004F0B1F9082004F0AEF90E2004F00E
:10280000ABF9082004F0A8F9542004F0A5F9A92098
:1028100004F0A2F9432004F09FF90A2004F09CF987
:102820000F2004F099F9002004F096F9002004F03C
:1028300093F9002004F090F9002004F08DF9E120D4
:1028400004F09CF9002004F087F9152004F084F9C5
:10285000172004F081F9072004F07EF9112004F01C
:102860007BF9062004F078F92B2004F075F9562046
:1028700004F072F93C2004F06FF9052004F06CF9C3
:10288000102004F069F90F2004F066F93F2004F0ED
:1028900063F93F200AE000000010024000100140F0
:1028A000000C0140000001401014002004F054F915
:1028B0000F2004F051F92B2004F060F9002004F0FF
:1028C0004BF9002004F048F9012004F045F93F20BD
:1028D00004F042F92A2004F051F9002004F03CF9F8
:1028E000002004F039F9002004F036F9EF2004F05C
:1028F00033F9112004F042F9782004F0EFFE29208A
:1029000004F03CF903F099BBFE48808846F60401C8
:1029100088427CD1112004F031F9142004F0DEFE4D
:10292000D02004F02BF9072004F016F9422004F01F
:1029300013F91D2004F010F9D12004F01FF9002034
:1029400004F00AF91A2004F007F9092004F004F948
:10295000D22004F013F9012004F0FEF8222004F044
:10296000FBF8C02004F00AF9102004F0F5F83B2031
:1029700004F0F2F8002004F0EFF8022004F0ECF884
:10298000112004F0E9F8C52004F0F8F8032004F061
:10299000E3F8C82004F0F2F8002004F0DDF8252068
:1029A00004F0DAF8212004F0D7F8052004F0D4F878
:1029B000002004F0D1F80A2004F0CEF8652004F0DD
:1029C000CBF8252004F0C8F8772004F0C5F8502093
:1029D00004F0C2F80F2004F0BFF8002004F0BCF8A7
:1029E000F82004F0CBF8012004F0B6F8FE2004F043
:1029F000C5F8002004F0B0F8022004F0ADF8202063
:102A000004F0BCF8362004F0B9F8082000E02CE00F
:102A100004F0A2F83A2004F0B1F8552004F09CF834
:102A20002B2004F0ABF8002004F096F8002004F00E
:102A300093F8012004F090F83F2004F08DF82A204C
:102A400004F09CF8002004F087F8002004F084F8DB
:102A5000012004F081F8DF2004F07EF8782004F0F3
:102A60003DFE292004F08AF84CE7A648808845F20C
:102A70001031884240F07C87ED2004F07FF801207F
:102A800004F06AF8FE2004F067F8EE2004F076F80F
:102A9000DE2004F061F8212004F05EF8F12004F05B
:102AA0006DF8012004F058F8DF2004F067F81020DA
:102AB00004F052F8C42004F061F88F2004F04CF8C0
:102AC000C62004F05BF8002004F046F8E22004F091
:102AD00043F8E22004F040F8E22004F03DF8BF2083
:102AE00004F04CF8AA2004F037F8B02004F046F8BF
:102AF0000D2004F031F8002004F02EF80D2004F031
:102B00002BF8002004F028F8112004F025F800200C
:102B100004F022F8192004F01FF8002004F01CF83B
:102B2000212004F019F8002004F016F82D2004F0FC
:102B300013F8002004F010F83D2004F00DF80020F8
:102B400004F00AF85D2004F007F8002004F004F80F
:102B50005D2004F001F8002003F0FEFFB12004F036
:102B60000DF8802003F0F8FF002003F0F5FF8B2024
:102B700003F0F2FF002003F0EFFF962003F0ECFFDC
:102B8000002003F0E9FFB22003F0F8FF002003F07B
:102B9000E3FF002003F0E0FF022003F0DDFF002050
:102BA00003F0DAFF032003F0D7FF002003F0D4FF87
:102BB000B32003F0E3FF002003F0CEFF002003F07A
:102BC000CBFF002003F0C8FF002003F0C5FF00206A
:102BD00003F0C2FF002003F0BFFF002003F0BCFFA2
:102BE000002003F0B9FF002003F0B6FF002003F03F
:102BF000B3FF002003F0B0FF002003F0ADFF002082
:102C000003F0AAFF002003F0A7FF002003F0A4FFB9
:102C1000002003F0A1FF002003F09EFF002003F03E
:102C20009BFF002003F098FF002003F095FF002099
:102C300003F092FF002003F08FFF002003F08CFFD1
:102C4000002003F089FFB42003F098FF8B2003F0ED
:102C500083FF002003F080FF962003F07DFF00201B
:102C600003F07AFFA12003F077FF002003F074FF48
:102C7000B52003F083FF022003F06EFF002003F075
:102C80006BFF032003F068FF002003F065FF0420C2
:102C900003F062FF002003F05FFFB62003F06EFF39
:102CA000002003F059FF002003F056FFB72003F087
:102CB00065FF002003F050FF002003F04DFF3F2090
:102CC00003F04AFF002003F047FF5E2003F044FFBB
:102CD000002003F041FF642003F03EFF002003F0DA
:102CE0003BFF8C2003F038FF002003F035FFAC20C1
:102CF00003F032FF002003F02FFFDC2003F02CFF55
:102D0000002001E01014002003F026FF702003F0E3
:102D100023FF002003F020FF902003F01DFF002080
:102D200003F01AFFEB2003F017FF002003F014FF5D
:102D3000DC2003F011FF002003F00EFFB82003F0A9
:102D40001DFF002003F008FF002003F005FF002016
:102D500003F002FF002003F0FFFE002003F0FCFE62
:102D6000002003F0F9FE002003F0F6FE002003F03F
:102D7000F3FEBA2003F002FF242003F0EDFE002052
:102D800003F0EAFE002003F0E7FE002003F0E4FE7B
:102D9000C12003F0F3FE202003F0DEFE002003F04C
:102DA000DBFE542003F0D8FE002003F0D5FEFF2008
:102DB00003F0D2FE002003F0CFFEC22003F0DEFEBF
:102DC0000A2003F0C9FE002003F0C6FE042003F031
:102DD000C3FE002003F0C0FEC32003F0CFFE3C2062
:102DE00003F0BAFE002003F0B7FE3A2003F0B4FE71
:102DF000002003F0B1FE392003F0AEFE002003F006
:102E0000ABFE372003F0A8FE002003F0A5FE3C2017
:102E100003F0A2FE002003F09FFE362003F09CFE8C
:102E2000002003F099FE322003F096FE002003F00C
:102E300093FE2F2003F090FE002003F08DFE2C2047
:102E400003F08AFE002003F087FE292003F084FEB1
:102E5000002003F081FE262003F07EFE002003F018
:102E60007BFE242003F078FE002003F075FE242072
:102E700003F072FE002003F06FFE232003F06CFECF
:102E8000002003F069FE3C2003F066FE002003F002
:102E900063FE362003F060FE002003F05DFE32206A
:102EA00003F05AFE002003F057FE2F2003F054FEDB
:102EB000002003F051FE2C2003F04EFE002003F012
:102EC0004BFE292003F048FE002003F045FE26209B
:102ED00003F042FE002003F03FFE242003F03CFEFE
:102EE000002003F039FE242003F036FE002003F01A
:102EF00033FE232003F030FE002003F02DFEC4201B
:102F000003F03CFE622003F027FE002003F024FEC5
:102F1000052003F021FE002003F01EFE842003F0B4
:102F20001BFE002003F018FEF02003F015FE002029
:102F300003F012FE182003F00FFE002003F00CFE39
:102F4000A42003F009FE002003F006FE182003F081
:102F500003FE002003F000FE502003F0FDFD0020E2
:102F600003F0FAFD0C2003F0F7FD002003F0F4FD60
:102F7000172003F0F1FD002003F0EEFD952003F093
:102F8000EBFD002003F0E8FDF32003F0E5FD002059
:102F900003F0E2FDE62003F0DFFD002003F0DCFD9E
:102FA000C52003F0EBFD322003F0D6FD002003F036
:102FB000D3FD442003F0D0FD002003F0CDFD6520BB
:102FC00003F0CAFD002003F0C7FD762003F0C4FD26
:102FD000002003F0C1FD882003F0BEFD002003F0B7
:102FE000BBFDC62003F0CAFD202003F0B5FD002084
:102FF00003F0B2FD172003F0AFFD002003F0ACFD9D
:10300000012003F0A9FD002003F0A6FDC72003F076
:10301000B5FD002003F0A0FD002003F09DFD002081
:1030200003F09AFD002003F097FDC82003F0A6FDF1
:10303000002003F091FD002003F08EFD002003F03E
:103040008BFD002003F088FDC92003F097FD0020D0
:1030500003F082FD002003F07FFD002003F07CFDE3
:10306000002003F079FD002003F076FD002003F03E
:1030700073FD002003F070FD002003F06DFD0020C3
:1030800003F06AFD002003F067FD002003F064FDFB
:10309000002003F061FD002003F05EFD002003F03E
:1030A0005BFD002003F058FD002003F055FDE020FB
:1030B00003F064FD162003F04FFD002003F04CFDEB
:1030C0001C2003F049FD002003F046FD212003F001
:1030D00043FD002003F040FD362003F03DFD0020BD
:1030E00003F03AFD462003F037FD002003F034FDE5
:1030F000522003F031FD002003F02EFD642003F088
:103100002BFD002003F028FD7A2003F025FD002090
:1031100003F022FD8B2003F01FFD002003F01CFDB7
:10312000992003F019FD002003F016FDA82003F0FC
:1031300013FD002003F010FDB92003F00DFD002069
:1031400003F00AFDC42003F007FD002003F004FD96
:10315000CA2003F001FD002003F0FEFCD22003F0A2
:10316000FBFC002003F0F8FCD92003F0F5FC002064
:1031700003F0F2FCE02003F0EFFC002003F0ECFC95
:10318000F32003F0E9FC002003F0E6FCE12003F06B
:10319000F5FC162003F0E0FC002003F0DDFC1C2011
:1031A00003F0DAFC002003F0D7FC222003F0D4FC6B
:1031B000002003F0D1FC362003F0CEFC002003F009
:1031C000CBFC452003F0C8FC002003F0C5FC5220D6
:1031D00003F0C2FC002003F0BFFC642003F0BCFC41
:1031E000002003F0B9FC7A2003F0B6FC002003F0C5
:1031F000B3FC8B2003F0B0FC002003F0ADFC992061
:1032000003F0AAFC002003F0A7FCA82003F0A4FC14
:10321000002003F0A1FCB92003F09EFC002003F085
:103220009BFCC42003F098FC002003F095FCCA200E
:1032300003F092FC002003F08FFCD22003F08CFC02
:10324000002003F089FCD82003F086FC002003F066
:1032500083FCE02003F080FC002003F07DFCF320E1
:1032600003F07AFC002003F077FCE22003F086FCF8
:10327000052003F071FC002003F06EFC0B2003F02E
:103280006BFC002003F068FC1B2003F065FC0020B1
:1032900003F062FC342003F05FFC002003F05CFCD0
:1032A000442003F059FC002003F056FC4F2003F0AB
:1032B00053FC002003F050FC612003F04DFC002083
:1032C00003F04AFC792003F047FC002003F044FCA3
:1032D000882003F041FC002003F03EFC972003F01F
:1032E0003BFC002003F038FCA62003F035FC002056
:1032F00003F032FCB72003F02FFC002003F02CFC7D
:10330000C22003F029FC002003F026FCC72003F0B4
:1033100023FC002003F020FCD12003F01DFC002042
:1033200003F01AFCD62003F017FC002003F014FC75
:10333000DD2003F011FC002003F00EFCF32003F06D
:103340000BFC002003F008FCE32003F017FC052031
:1033500003F002FC002003F0FFFB0A2003F0FCFB5B
:10336000002003F0F9FB1C2003F0F6FB002003F023
:10337000F3FB332003F0F0FB002003F0EDFB4420CF
:1033800003F0EAFB002003F0E7FB502003F0E4FB2E
:10339000002003F0E1FB622003F0DEFB002003F0DD
:1033A000DBFB782003F0D8FB002003F0D5FB88205E
:1033B00003F0D2FB002003F0CFFB972003F0CCFBFF
:1033C000002003F0C9FBA62003F0C6FB002003F099
:1033D000C3FBB72003F0C0FB002003F0BDFBC220FD
:1033E00003F0BAFB002003F0B7FBC72003F0B4FBE7
:1033F000002003F0B1FBD12003F0AEFB002003F06E
:10340000ABFBD52003F0A8FB002003F0A5FBDD20DB
:1034100003F0A2FB002003F09FFBF32003F09CFBD2
:10342000002003F099FBE42003F0A8FB012003F047
:1034300093FB002003F090FB012003F08DFB0020A4
:1034400003F08AFB022003F087FB002003F084FBDB
:103450002A2003F081FB002003F07EFB3C2003F0D8
:103460007BFB002003F078FB4B2003F075FB002072
:1034700003F072FB5D2003F06FFB002003F06CFB98
:10348000742003F069FB002003F066FB842003F046
:1034900063FB002003F060FB932003F05DFB002042
:1034A00003F05AFBA22003F057FB002003F054FB6B
:1034B000B32003F051FB002003F04EFBBE2003F0CD
:1034C0004BFB002003F048FBC42003F045FB002029
:1034D00003F042FBCD2003F03FFB002003F03CFB58
:1034E000D32003F039FB002003F036FBDD2003F08E
:1034F00033FB002003F030FBF32003F02DFB002012
:1035000003F02AFBE52003F039FB002003F024FB45
:10351000002003F021FB002003F01EFB002003F03D
:103520001BFB022003F018FB002003F015FB2920F1
:1035300003F012FB002003F00FFB3C2003F00CFB18
:10354000002003F009FB4B2003F006FB002003F0F2
:1035500003FB5D2003F000FB002003F0FDFA742064
:1035600003F0FAFA002003F0F7FA842003F0F4FAEB
:10357000002003F0F1FA932003F0EEFA002003F0AC
:10358000EBFAA22003F0E8FA002003F0E5FAB320FA
:1035900003F0E2FA002003F0DFFABE2003F0DCFAC9
:1035A000002003F0D9FAC42003F0D6FA002003F07B
:1035B000D3FACD2003F0D0FA002003F0CDFAD320C7
:1035C00003F0CAFA002003F0C7FADC2003F0C4FAC3
:1035D000002003F0C1FAF32003F0BEFA002003F04C
:1035E000BBFAE62003F0CAFA112003F0B5FA002076
:1035F00003F0B2FA342003F0AFFA002003F0ACFA83
:10360000562003F0A9FA002003F0A6FA762003F072
:10361000A3FA002003F0A0FA772003F09DFA00201F
:1036200003F09AFA662003F097FA002003F094FA68
:10363000882003F091FA002003F08EFA992003F01D
:103640008BFA002003F088FABB2003F085FA0020F3
:1036500003F082FA992003F07FFA002003F07CFA4D
:10366000662003F079FA002003F076FA552003F083
:1036700073FA002003F070FA552003F06DFA002071
:1036800003F06AFA452003F067FA002003F064FAB9
:10369000432003F061FA002003F05EFA442003F0B7
:1036A0005BFA002003F058FAE72003F067FA3220B3
:1036B00003F052FA002003F04FFA552003F04CFAC1
:1036C000002003F049FA762003F046FA002003F0C8
:1036D00043FA662003F040FA002003F03DFA672029
:1036E00003F03AFA002003F037FA672003F034FAC7
:1036F000002003F031FA872003F02EFA002003F0B7
:103700002BFA992003F028FA002003F025FABB20B9
:1037100003F022FA002003F01FFA992003F01CFAAC
:10372000002003F019FA772003F016FA002003F0C6
:1037300013FA442003F010FA002003F00DFA56208B
:1037400003F00AFA002003F007FA232003F004FA3A
:10375000002003F001FA332003F0FEF9002003F00B
:10376000FBF9452003F0F8F9002003F0F5F9E82013
:1037700003F004FA002003F0EFF9002003F0ECF965
:10378000992003F0E9F9002003F0E6F9872003F01F
:10379000E3F9002003F0E0F9882003F0DDF90020D0
:1037A00003F0DAF9772003F0D7F9002003F0D4F919
:1037B000662003F0D1F9002003F0CEF9882003F051
:1037C000CBF9002003F0C8F9AA2003F0C5F90020C6
:1037D00003F0C2F9BB2003F0BFF9002003F0BCF9ED
:1037E000992003F0B9F9002003F0B6F9662003F040
:1037F000B3F9002003F0B0F9552003F0ADF9002033
:1038000003F0AAF9552003F0A7F9002003F0A4F96A
:10381000442003F0A1F9002003F09EF9442003F0B6
:103820009BF9002003F098F9552003F095F900204A
:1038300003F092F9E92003F0A1F9AA2003F08CF932
:10384000002003F089F9002003F086F9002003F03E
:1038500083F9002003F092F9AA2003F07DF9CF202C
:1038600003F08CF9002003F077F9002003F074F9DD
:10387000002003F071F9002003F06EF9002003F03E
:103880006BF9002003F068F9002003F065F90020CF
:1038900003F062F9002003F05FF9002003F05CF907
:1038A000002003F059F9002003F056F9002003F03E
:1038B00053F9002003F050F9002003F04DF90020E7
:1038C00003F04AF9002003F047F9F02003F056F91D
:1038D000002003F041F9502003F03EF9002003F0EE
:1038E0003BF9002003F038F9002003F035F9F3200C
:1038F00003F044F9002003F02FF9F92003F03EF91A
:10390000062003F029F9102003F026F9292003F0FE
:1039100023F9002003F020F93A2003F02FF9552075
:1039200003F01AF9112003F029F9642003F0D6FE00
:10393000292003F023F9352003F020F9002003F0BB
:103940000BF9512003F01AF9FF2003F005F9532079
:1039500003F014F92C2003F0FFF8552003F00EF9C2
:10396000822003F0F9F82C2003F008F902F065BB7F
:10397000FE48808845F2105188427DD155214FF490
:10398000704003F015F9AA214FF2010003F010F97D
:1039900052214FF2020003F00BF908214FF203000D
:1039A00003F006F901214FF2040003F001F90D21A3
:1039B0004FF4304003F0FCF80D214BF2010003F00E
:1039C000F7F80D214BF2020003F0F2F834214FF426
:1039D000364003F0EDF834214BF2016003F0E8F8D3
:1039E00034214BF2026003F0E3F80D214FF4314033
:1039F00003F0DEF80D214BF2011003F0D9F80D2190
:103A00004BF2021003F0D4F834214FF4374003F0A6
:103A1000CFF834214BF2017003F0CAF834214BF295
:103A2000027003F0C5F800214FF4324003F0C0F8F3
:103A300000214BF2012003F0BBF800214BF20220E1
:103A400003F0B6F824214FF4384003F0B1F82421F4
:103A50004BF6010003F0ACF824214BF6020003F012
:103A6000A7F801214FF43F4003F0A2F80F214FF4D3
:103A7000334003F09DF800E0FDE30F214BF20130ED
:103A800003F096F80F214BF2023003F091F8342145
:103A90004FF4394003F08CF834214BF6011003F059
:103AA00087F834214BF6021003F082F808214FF416
:103AB000354003F07DF808214BF2015003F078F80F
:103AC00008214BF2025003F073F803214FF44240F7
:103AD00003F06EF824214FF43A4003F069F82421F2
:103AE0004BF6012003F064F824214BF6022003F08A
:103AF0005FF800214FF43C4003F05AF878214BF670
:103B0000014003F055F800214BF6024003F050F855
:103B100000214FF43D4003F04BF878214BF6015063
:103B200003F046F800214BF6025003F041F8002163
:103B30004FF43E4003F03CF864214BF6016003F083
:103B400037F800214FF4514003F032F833214DF2A1
:103B5000011003F02DF800214DF2021003F028F8B7
:103B600034214DF2031003F023F800214DF204102C
:103B700003F01EF83A214DF2051003F019F8002168
:103B80004DF2061003F014F84A214DF2071003F02D
:103B90000FF800214DF2081003F00AF85C214DF2F5
:103BA000091003F005F800214DF20A1003F000F8A7
:103BB00081214DF20B1002F0FBFF00214DF20C10A1
:103BC00002F0F6FFA6214DF20D1002F0F1FF0021E8
:103BD0004DF20E1002F0ECFFE5214DF20F1002F055
:103BE000E7FF01214DF2101002F0E2FF13214DF228
:103BF000111002F0DDFF01214DF2121002F0D8FF8A
:103C000054214DF2131002F0D3FF01214DF2141094
:103C100002F0CEFF82214DF2151002F0C9FF012102
:103C20004DF2161002F0C4FFCA214DF2171002F037
:103C3000BFFF02214DF2181002F0BAFF00214DF231
:103C4000191002F0B5FF02214DF21A1002F0B0FF78
:103C500001214DF21B1002F0ABFF02214DF21C10AE
:103C600002F0A6FF34214DF21D1002F0A1FF022147
:103C70004DF21E1002F09CFF67214DF21F1002F062
:103C800097FF02214DF2201002F092FF84214DF2A5
:103C9000211002F08DFF02214DF2221002F088FF68
:103CA000A4214DF2231002F083FF02214DF22410D3
:103CB00002F07EFFB7214DF2251002F079FF0221BC
:103CC0004DF2261002F074FFCF214DF2271002F0C2
:103CD0006FFF02214DF2281002F06AFFDE214DF243
:103CE000291002F065FF02214DF22A1002F060FF58
:103CF000F2214DF22B1002F05BFF02214DF22C104D
:103D000002F056FFFE214DF22D1002F051FF03216B
:103D10004DF22E1002F04CFF10214DF22F1002F048
:103D200047FF03214DF2301002F042FF33214DF2E4
:103D3000311002F03DFF03214DF2321002F038FF46
:103D40006D214DF2331002F033FF00214FF4524049
:103D500002F02EFF33214DF2012002F029FF002155
:103D60004DF2022002F024FF342101E01014002063
:103D70004DF2032002F01CFF00214DF2042002F05E
:103D800017FF3A214DF2052002F012FF00214DF2FB
:103D9000062002F00DFF4A214DF2072002F008FF35
:103DA00000214DF2082002F003FF5C214DF20920B2
:103DB00002F0FEFE00214DF20A2002F0F9FE812100
:103DC0004DF20B2002F0F4FE00214DF20C2002F027
:103DD000EFFEA6214DF20D2002F0EAFE00214DF289
:103DE0000E2002F0E5FEE5214DF20F2002F0E0FE8C
:103DF00001214DF2102002F0DBFE13214DF21120C3
:103E000002F0D6FE01214DF2122002F0D1FE542123
:103E10004DF2132002F0CCFE01214DF2142002F0ED
:103E2000C7FE82214DF2152002F0C2FE01214DF2A3
:103E3000162002F0BDFECA214DF2172002F0B8FE96
:103E400002214DF2182002F0B3FE00214DF219209C
:103E500002F0AEFE02214DF21A2002F0A9FE01216D
:103E60004DF21B2002F0A4FE02214DF21C2002F0B4
:103E70009FFE34214DF21D2002F09AFE02214DF2E8
:103E80001E2002F095FE67214DF21F2002F090FEE9
:103E900002214DF2202002F08BFE84214DF22120E0
:103EA00002F086FE02214DF2222002F081FEA421C2
:103EB0004DF2232002F07CFE02214DF2242002F07C
:103EC00077FEB7214DF2252002F072FE02214DF25D
:103ED000262002F06DFECF214DF2272002F068FE71
:103EE00002214DF2282002F063FEDE214DF229204E
:103EF00002F05EFE02214DF22A2002F059FEF2216C
:103F00004DF22B2002F054FE02214DF22C2002F043
:103F10004FFEFE214DF22D2002F04AFE03214DF20C
:103F20002E2002F045FE10214DF22F2002F040FE1F
:103F300003214DF2302002F03BFE33214DF23120BF
:103F400002F036FE03214DF2322002F031FE6D21E7
:103F50004DF2332002F02CFE00214FF4534002F0CA
:103F600027FE33214DF2013002F022FE00214DF2F6
:103F7000023002F01DFE34214DF2033002F018FE33
:103F800000214DF2043002F013FE3A214DF20530CB
:103F900002F00EFE00214DF2063002F009FE4A2129
:103FA0004DF2073002F004FE00214DF2083002F01D
:103FB000FFFD5C214DF2093002F0FAFD00214DF2C7
:103FC0000A3002F0F5FD81214DF20B3002F0F0FDD8
:103FD00000214DF20C3002F0EBFDA6214DF20D3028
:103FE00002F0E6FD00214DF20E3002F0E1FDE52188
:103FF0004DF20F3002F0DCFD01214DF2103002F0E5
:10400000D7FD13214DF2113002F0D2FD01214DF206
:10401000123002F0CDFD54214DF2133002F0C8FDF4
:1040200001214DF2143002F0C3FD82214DF2153012
:1040300002F0BEFD01214DF2163002F0B9FDCA2199
:104040004DF2173002F0B4FD02214DF2183002F0AB
:10405000AFFD00214DF2193002F0AAFD02214DF210
:104060001A3002F0A5FD01214DF21B3002F0A0FD37
:1040700002214DF21C3002F09BFD34214DF21D3027
:1040800002F096FD02214DF21E3002F091FD6721F3
:104090004DF21F3002F08CFD02214DF2203002F073
:1040A00087FD84214DF2213002F082FD02214DF284
:1040B000223002F07DFDA4214DF2233002F078FD84
:1040C00002214DF2243002F073FDB7214DF225306C
:1040D00002F06EFD02214DF2263002F069FDCF2183
:1040E0004DF2273002F064FD02214DF2283002F03B
:1040F0005FFDDE214DF2293002F05AFD02214DF222
:104100002A3002F055FDF2214DF22B3002F050FD25
:1041100002214DF22C3002F04BFDFE214DF22D30EC
:1041200002F046FD03214DF22E3002F041FD102138
:104130004DF22F3002F03CFD03214DF2303002F001
:1041400037FD33214DF2313002F032FD03214DF2C3
:10415000323002F02DFD6D214DF2333002F028FD9A
:1041600000214FF4544002F023FD33214DF2014071
:1041700002F01EFD00214DF2024002F019FD342133
:104180004DF2034002F014FD00214DF2044002F014
:104190000FFD3A214DF2054002F00AFD00214DF2DB
:1041A000064002F005FD4A214DF2074002F000FDF5
:1041B00000214DF2084002F0FBFC5C214DF2094069
:1041C00002F0F6FC00214DF20A4002F0F1FC8121E0
:1041D0004DF20B4002F0ECFC00214DF20C4002F0DD
:1041E000E7FCA6214DF20D4002F0E2FC00214DF269
:1041F0000E4002F0DDFCE5214DF20F4002F0D8FC4C
:1042000001214DF2104002F0D3FC13214DF2114078
:1042100002F0CEFC01214DF2124002F0C9FC542103
:104220004DF2134002F0C4FC01214DF2144002F0A3
:10423000BFFC82214DF2154002F0BAFC01214DF283
:10424000164002F0B5FCCA214DF2174002F0B0FC56
:1042500002214DF2184002F0ABFC00214DF2194052
:1042600002F0A6FC02214DF21A4002F0A1FC01214D
:104270004DF21B4000E006E302F09AFC02214DF2F1
:104280001C4002F095FC34214DF21D4002F090FCE0
:1042900002214DF21E4002F08BFC67214DF21F40BF
:1042A00002F086FC02214DF2204002F081FC8421C4
:1042B0004DF2214002F07CFC02214DF2224002F03E
:1042C00077FCA4214DF2234002F072FC02214DF252
:1042D000244002F06DFCB7214DF2254002F068FC4D
:1042E00002214DF2264002F063FCCF214DF227401F
:1042F00002F05EFC02214DF2284002F059FCDE2162
:104300004DF2294002F054FC02214DF22A4002F005
:104310004FFCF2214DF22B4002F04AFC02214DF2FB
:104320002C4002F045FCFE214DF22D4002F040FCF5
:1043300003214DF22E4002F03BFC10214DF22F40A4
:1043400002F036FC03214DF2304002F031FC332103
:104350004DF2314002F02CFC03214DF2324002F0CC
:1043600027FC6D214DF2334002F022FC00214FF476
:10437000554002F01DFC33214DF2015002F018FCB3
:1043800000214DF2025002F013FC34214DF2035093
:1043900002F00EFC00214DF2045002F009FC3A211B
:1043A0004DF2055002F004FC00214DF2065002F0DF
:1043B000FFFB4A214DF2075002F0FAFB00214DF2BB
:1043C000085002F0F5FB5C214DF2095002F0F0FBC1
:1043D00000214DF20A5002F0EBFB81214DF20B500F
:1043E00002F0E6FB00214DF20C5002F0E1FBA621A9
:1043F0004DF20D5002F0DCFB00214DF20E5002F0A8
:10440000D7FBE5214DF20F5002F0D2FB01214DF216
:10441000105002F0CDFB13214DF2115002F0C8FBF9
:1044200001214DF2125002F0C3FB54214DF2135002
:1044300002F0BEFB01214DF2145002F0B9FB8221C3
:104440004DF2155002F0B4FB01214DF2165002F06E
:10445000AFFBCA214DF2175002F0AAFB02214DF228
:10446000185002F0A5FB00214DF2195002F0A0FBFC
:1044700002214DF21A5002F09BFB01214DF21B501C
:1044800002F096FB02214DF21C5002F091FB342108
:104490004DF21D5002F08CFB02214DF21E5002F035
:1044A00087FB67214DF21F5002F082FB02214DF283
:1044B000205002F07DFB84214DF2215002F078FB68
:1044C00002214DF2225002F073FBA4214DF2235041
:1044D00002F06EFB02214DF2245002F069FBB7217D
:1044E0004DF2255002F064FB02214DF2265002F0FD
:1044F0005FFBCF214DF2275002F05AFB02214DF213
:10450000285002F055FBDE214DF2295002F050FBFD
:1045100002214DF22A5002F04BFBF2214DF22B50BA
:1045200002F046FB02214DF22C5002F041FBFE212D
:104530004DF22D5002F03CFB03214DF22E5002F0C3
:1045400037FB10214DF22F5002F032FB03214DF2C8
:10455000305002F02DFB33214DF2315002F028FB98
:1045600003214DF2325002F023FB6D214DF2335006
:1045700002F01EFB00214FF4564002F019FB3321DC
:104580004DF2016002F014FB00214DF2026002F0D6
:104590000FFB34214DF2036002F00AFB00214DF2C3
:1045A000046002F005FB3A214DF2056002F000FBC9
:1045B00000214DF2066002F0FBFA4A214DF207603D
:1045C00002F0F6FA00214DF2086002F0F1FA5C21E7
:1045D0004DF2096002F0ECFA00214DF20A6002F09F
:1045E000E7FA81214DF20B6002F0E2FA00214DF270
:1045F0000C6002F0DDFAA6214DF20D6002F0D8FA4F
:1046000000214DF20E6002F0D3FAE5214DF20F6069
:1046100002F0CEFA01214DF2106002F0C9FA132126
:104620004DF2116002F0C4FA01214DF2126002F065
:10463000BFFA54214DF2136002F0BAFA01214DF293
:10464000146002F0B5FA82214DF2156002F0B0FA62
:1046500001214DF2166002F0ABFACA214DF217604B
:1046600002F0A6FA02214DF2186002F0A1FA002130
:104670004DF2196002F09CFA02214DF21A6002F02C
:1046800097FA01214DF21B6002F092FA02214DF2DD
:104690001C6002F08DFA34214DF21D6002F088FAA0
:1046A00002214DF21E6002F083FA67214DF21F6075
:1046B00002F07EFA02214DF2206002F079FA8421A4
:1046C0004DF2216002F074FA02214DF2226002F0F4
:1046D0006FFAA4214DF2236002F06AFA02214DF232
:1046E000246002F065FAB7214DF2256002F060FA0D
:1046F00002214DF2266002F05BFACF214DF22760D5
:1047000002F056FA02214DF2286002F051FADE2141
:104710004DF2296002F04CFA02214DF22A6002F0BB
:1047200047FAF2214DF22B6002F042FA02214DF2DB
:104730002C6002F03DFAFE214DF22D6002F038FAB5
:1047400003214DF22E6002F033FA10214DF22F605A
:1047500002F02EFA03214DF2306002F029FA3321E3
:104760004DF2316002F024FA03214DF2326002F082
:104770001FFA6D214DF2336002F01AFA55214FF401
:10478000704002F015FAAA214FF2010002F010FA6F
:1047900052214FF2020002F00BFA08214FF20300FF
:1047A00002F006FA00214FF2040002F001FACC21D7
:1047B0004FF4314002F0FCF900214BF2011002F0FD
:1047C000F7F905214FF4364002F0F2F970214FF469
:1047D000374002F0EDF970214BF2017002F0E8F978
:1047E00001214FF4384002F0E3F903214BF60100B8
:1047F00002F0DEF903214BF6020002F0D9F90321A1
:104800004BF6030002F0D4F902214FF43C4002F0D1
:10481000CFF900214BF6014002F0CAF900214BF616
:10482000024002F0C5F9D0214FF4494002F0C0F92E
:1048300002214CF6011002F0BBF950214CF6021097
:1048400002F0B6F950214CF6031002F0B1F95021F4
:104850004CF6041002F0ACF900214FF4545002F071
:10486000A7F955214FF4685002F0A2F94FF488508F
:1048700002F084F9782002F03DFF4FF4245002F05A
:104880007DF901F0DABBFE48808849F22531884283
:104890007ED147F6F001E52002F08AF94FF48071ED
:1048A000012002F085F94FF4E061022002F080F966
:1048B00041F23001032002F07BF90021042002F0D4
:1048C00077F940F20221082002F072F90021092054
:1048D00002F06EF900210A2002F06AF900210C2092
:1048E00002F066F900210D2002F062F900210F208C
:1048F00002F05EF90021102002F05AF90721112080
:1049000002F056F90021122002F052F90021132082
:1049100002F04EF90021072002F04AF941F29061BD
:10492000102002F045F940F22721112002F040F951
:104930009D21122002F03CF94FF4C851132002F0DF
:1049400037F92521292002F033F90D212B2002F01F
:104950002FF90721302002F02BF940F203313120EA
:1049600002F026F90321322002F022F940F206215A
:10497000352002F01DF90821362002F019F940F225
:104980000641372002F014F94FF44171382000E05D
:1049900057E002F00DF90721392002F009F940F241
:1049A00002613C2002F004F908213D2002F000F9E8
:1049B0000021502002F0FCF8EF21512002F0F8F81D
:1049C0000021522002F0F4F840F23F11532002F08F
:1049D000EFF84FF42741602002F0EAF8012161204E
:1049E00002F0E6F800216A2002F0E2F800218020BF
:1049F00002F0DEF80021812002F0DAF800218220A6
:104A000002F0D6F80021832002F0D2F800218420A1
:104A100002F0CEF80021852002F0CAF81021902083
:104A200002F0C6F84FF4C061922002F0C1F840F2E3
:104A30003311072002F0BCF82221002002F0B8F860
:104A40001FE78F48808849F2283188427ED141F2A1
:104A50008F01EC2002F0ACF841F23421EF2002F09B
:104A6000A7F84FF48071012002F0A2F84FF4E06142
:104A7000022002F09DF841F23001032002F098F884
:104A80000021042002F094F840F20221082002F0F4
:104A90008FF80021092002F08BF800210A2002F093
:104AA00087F801210C2002F083F800210D2002F08C
:104AB0007FF800210F2002F07BF80021102002F087
:104AC00077F80721112002F073F80021122002F07C
:104AD0006FF80021132002F06BF80121072002F08B
:104AE00067F8322002F0FAFD41F29041102002F006
:104AF0005FF840F22721112002F05AF8322002F02C
:104B0000EDFD8A21122002F053F8322002F0E6FD7A
:104B10004FF4D051132002F04BF80621292002F067
:104B200047F80D212B2002F043F8322002F0D6FD89
:104B30000021202002F03CF80021212002F038F86A
:104B4000322002F0CBFD0021302000E074E002F0C2
:104B50002FF840F20461312002F02AF840F20531CA
:104B6000322002F025F80021352002F021F840F62D
:104B70000941362002F01CF84FF40171372002F091
:104B800017F840F20131382002F012F840F20771B4
:104B9000392002F00DF800213C2002F009F840F61F
:104BA0000A213D2002F004F8322002F097FD002196
:104BB000502001F0FDFFEF21512001F0F9FF00210D
:104BC000522001F0F5FF40F23F11532001F0F0FFB9
:104BD0004FF42741602001F0EBFF0121612001F03B
:104BE000E7FF00216A2001F0E3FF0021802001F0AF
:104BF000DFFF0021812001F0DBFF0021822001F096
:104C0000D7FF0021832001F0D3FF0021842001F091
:104C1000CFFF0021852001F0CBFF1021902001F073
:104C2000C7FF4FF4C061922001F0C2FF40F2331180
:104C3000072001F0BDFF24E61148808849F22031A9
:104C400088427DD10021084601F0B2FF4FF4807107
:104C5000012001F0ADFF4FF4E061022001F0A8FF58
:104C600041F23001032001F0A3FF0021042001F0F4
:104C70009FFF40F20221082001F09AFF002101E08D
:104C800010140020092001F093FF00210A2001F0F8
:104C90008FFF01210C2001F08BFF00210D2001F07E
:104CA00087FF00210F2001F083FF322002F016FD64
:104CB00040F20111072001F07BFF322002F00EFDCF
:104CC0004FF48651102001F073FF0721112001F0ED
:104CD0006FFF4FF48871122001F06AFF4FF43061CA
:104CE000132001F065FF0021292001F061FF44F24B
:104CF00010012B2001F05CFF0021502001F058FF33
:104D0000EF21512001F054FF0021522001F050FF0B
:104D100040F23F11532001F04BFF4FF41C51602033
:104D200001F046FF0121612001F042FF00216A20CD
:104D300001F03EFF0021802001F03AFF002100E059
:104D400031E0812001F034FF0021822001F030FFAA
:104D50000021832001F02CFF0021842001F028FF96
:104D60000021852001F024FF1021902001F020FF78
:104D70000021922001F01CFF0121932001F018FF77
:104D80004FF48871952001F013FF0021972001F066
:104D90000FFF0021982001F00BFF40F27311072054
:104DA00001F006FF6DE5FE48808849F23131884206
:104DB0007DD141F21401E72001F0FAFE4FF4807139
:104DC000012001F0F5FE4FF40071022001F0F0FE29
:104DD00041F23801032001F0EBFE40F202210820ED
:104DE00001F0E6FE0021092001F0E2FE00210A2088
:104DF00001F0DEFE00210C2001F0DAFE00210D2082
:104E000001F0D6FE00210F2001F0D2FE002110207B
:104E100001F0CEFE0721112001F0CAFE0021122070
:104E200001F0C6FE0021132001F0C2FEC82002F0EE
:104E300055FC41F29061102001F0BAFE40F22721AA
:104E4000112001F0B5FE322002F048FC0C211220A6
:104E500001F0AEFE322002F041FC4FF4006113205D
:104E600001F0A6FE1121292001F0A2FE0B212B202A
:104E700001F09EFE322002F031FC0021202001F0E2
:104E800097FE40F23F11212001F092FE00213020D8
:104E900001F08EFE4FF48371312001F089FE002174
:104EA000322001F085FE4FF40171352000E064E00E
:104EB00001F07EFE41F20A61362001F079FE40F2F7
:104EC0000771372001F074FE4FF48371382001F030
:104ED0006FFE40F20771392001F06AFE40F2024194
:104EE0003C2001F065FE40F60F413D2001F060FEE0
:104EF0000021502001F05CFEEF21512001F058FE0E
:104F00000021522001F054FE40F23F11532001F0E5
:104F10004FFE4FF41C51602001F04AFE0121612038
:104F200001F046FE00216A2001F042FE00218020AF
:104F300001F03EFE0021812001F03AFE0021822096
:104F400001F036FE0021832001F032FE0021842092
:104F500001F02EFE0021852001F02AFE1021902074
:104F600001F026FE4FF4C061922001F021FE40F2D4
:104F70003311072001F01CFE83E48948808845F244
:104F8000084188427ED14FF48071012001F010FE6B
:104F90004FF4E061022001F00BFE41F230010320EA
:104FA00001F006FE0021042001F002FE40F207217C
:104FB000082001F0FDFD0021092001F0F9FD00218C
:104FC0000A2001F0F5FD00210C2001F0F1FD002187
:104FD0000D2001F0EDFD00210F2001F0E9FD14206E
:104FE00002F07CFB41F2B061102001F0E1FD0121F3
:104FF000112001F0DDFD0121172001F0D9FD4FF452
:105000009C71122001F0D4FD4FF40061132001F0D7
:10501000CFFD0921292001F0CBFD09212A2001F033
:10502000C7FD0021A42001F0C3FD0021502001F0A4
:10503000BFFDEF21512001F0BBFD0021522001F006
:10504000B7FD40F23F11532001F0B2FD4FF41C5167
:10505000602001F0ADFD0121612001F0A9FD0021DA
:105060006A2001F0A5FD0021802001F0A1FD0021B2
:10507000812001F09DFD0021822001F099FD002199
:10508000832000E023E001F093FD0021842001F063
:105090008FFD0021852001F08BFD1321902001F070
:1050A00087FD0021922001F083FD0321932001F070
:1050B0007FFD4FF48871952001F07AFD40F2731165
:1050C000072001F075FD322002F008FBB8E43448F7
:1050D000808841F2055188427ED10021072001F0ED
:1050E00067FD322002F0FAFA4FF48E71122001F0BF
:1050F0005FFD0121A42001F05BFD0F21082001F0DC
:1051000057FD08210A2001F053FD08210D2001F070
:105110004FFD40F20771302001F04AFD0721312098
:1051200001F046FD40F20361322001F041FD4FF4F1
:10513000E061332001F03CFD40F20221342001F017
:1051400037FD0221352001F033FD41F60F71362085
:1051500001F02EFD40F20771372001F029FD0021FA
:10516000382001F025FD0021392001F021FD40F219
:1051700007713A2001F01CFD00213B2001F018FDD1
:1051800007213C2001F014FD00213D2001F010FD1D
:10519000322002F0A3FA0121072001F009FD01E00D
:1051A000101400200121172001F002FD322002F02E
:1051B00095FA4FF4BD51102001F0FAFC40F217218E
:1051C000112001F0F5FC4FF48F71122001F0F0FC7A
:1051D0004FF47061132000E097E001F0E9FC00213A
:1051E0002A2001F0E5FC0A21292001F0E1FC4FF41E
:1051F0009F71122001F0DCFC0021502001F0D8FC4E
:10520000EF21512001F0D4FC0021522001F0D0FC0C
:1052100040F23F11532001F0CBFC4FF41C516020B1
:1052200001F0C6FC0121612001F0C2FC00216A20CE
:1052300001F0BEFC0021802001F0BAFC0021812099
:1052400001F0B6FC0021822001F0B2FC0021832095
:1052500001F0AEFC0021842001F0AAFC0021852091
:1052600001F0A6FC1321902001F0A2FC4FF4407144
:10527000922001F09DFC0521932001F099FC002172
:10528000952001F095FC0021972001F091FC002170
:10529000982001F08DFC4FF48071012001F088FC12
:1052A0004FF4E061022001F083FC41F23801032059
:1052B00001F07EFC0021042001F07AFC00210C208A
:1052C00001F076FC00210F2001F072FC002120206B
:1052D00001F06EFC0021212001F06AFC2121072051
:1052E00001F066FC142002F0F9F96121072001F0B9
:1052F0005FFC142002F0F2F940F27311072001F074
:1053000057FC142002F0EAF995E4FE4880884BF23D
:10531000055188427ED10021084601F049FC002158
:10532000084601F045FC0021084601F041FC00213F
:10533000084601F03DFC0121A42001F039FC1420B5
:1053400002F0CCF94FF41C51602001F031FC40F226
:105350000221082001F02CFC4FF40571302001F0EF
:1053600027FC43F21571312001F022FC40F2046168
:10537000322001F01DFC40F61661332001F018FCCC
:1053800042F21121342001F013FC4FF4A8513520D2
:1053900001F00EFC48F20751362001F009FC41F201
:1053A0000741372001F004FC41F20341382001F0AD
:1053B000FFFB2021392001F0FBFB1A21902001F096
:1053C000F7FB0021102001F0F3FB0721112001F071
:1053D000EFFB0021122001F0EBFB0021132001F074
:1053E000E7FB142002F07AF94FF4E661102001F097
:1053F000DFFB40F23711112001F0DAFB142002F03C
:105400006DF94FF4DC71122001F0D2FB142002F090
:1054100065F900E083E04FF47061132001F0C8FBF0
:1054200080212A2001F0C4FB4821292001F0C0FB83
:10543000142002F053F94FF48071012001F0B8FB01
:105440004FF4E061022001F0B3FB41F23801032088
:1054500001F0AEFB40F20221082001F0A9FB00217F
:105460000A2001F0A5FB00210C2001F0A1FB002186
:105470000D2001F09DFB30210E2001F099FB002151
:10548000502001F095FBEF21512001F091FB00210C
:10549000522001F08DFB40F23F11532001F088FBB8
:1054A0004FF41C51602001F083FB0121612001F0C9
:1054B0007FFB00216A2001F07BFB1121902001F08D
:1054C00077FB4FF4C061922001F072FB40F2024181
:1054D000932001F06DFB0221942001F069FB142060
:1054E00002F0FCF80121072001F062FB142002F019
:1054F000F5F86121072001F05BFB40F273110720F2
:1055000001F056FB0021202001F052FB0021212058
:1055100001F04EFB2221002001F04AFB42E47948D1
:1055200080884CF2055188427ED10021084601F066
:105530003FFB0021084601F03BFB142002F0CEF8AF
:105540000021084601F034FB0021084601F030FB41
:105550000021084601F02CFB0021084601F028FB41
:105560000121A42001F024FB142002F0B7F84FF42D
:105570001C51602001F01CFB40F60601082001F0E0
:1055800017FB40F20371302001F012FB01213120A2
:1055900001F00EFB0421322001F00AFB4FF481716F
:1055A000332001F005FB4FF44071342001F000FB83
:1055B00040F20311352001F0FBFA1F21362001F0E3
:1055C000F7FA40F20371372001F0F2FA0121382096
:1055D00001F0EEFA0421392001F0EAFA15219020B9
:1055E00001F0E6FA4FF48261102001F0E1FA40F296
:1055F0004721112001F0DCFA4FF4DE71122001F096
:10560000D7FA4FF46061132001F0D2FA782002F04B
:1056100065F84FF48071012001F0CAFA4FF400716F
:10562000022001F0C5FA00E050E041F23001032011
:1056300001F0BEFA08210A2001F0BAFA00210C207C
:1056400001F0B6FA20210E2001F0B2FA00210F205D
:1056500001F0AEFA0021202001F0AAFA0021212059
:1056600001F0A6FA3D212A2001F0A2FA142002F04E
:1056700035F82D21292001F09BFA0021502001F05E
:1056800097FA4DF2EF01512001F092FA00215220D9
:1056900001F08EFA40F23F11532001F089FA002107
:1056A000612001F085FA00216A2001F081FA4FF4AF
:1056B0004071922001F07CFA0521932001F078FAE4
:1056C0004FF48071072001F073FA55E40D4880888B
:1056D00048F6891188427DD10121002001F068FA45
:1056E0004AF6A401032001F063FA00210C2001F026
:1056F0005FFA40F60C010D2001F05AFA4FF42C51DC
:105700000E2001E01014002001F052FAB0211E20FA
:1057100001F04EFA42F63F31012001F049FA4FF410
:10572000C061022001F044FA0021102001F040FA8B
:1057300046F27801112001F03BFA0021052001F02A
:1057400037FA0021062001F033FA4EF61C711620BC
:1057500001F02EFA0321172001F02AFA40F233213A
:10576000072001F025FA00210B2001F021FA002189
:105770000F2001F01DFA0021412001F019FA00214B
:10578000422001F015FA0021482001F011FA40F200
:105790003F11492001F00CFA00214A2001F008FADB
:1057A00000214B2001F004FA4FF46F41442001F036
:1057B000FFF90021452001F0FBF940F23F1146209E
:1057C00001F0F6F940F20771302001F0F1F94FF4E1
:1057D000017100E040E0312001F0EAF94FF401717D
:1057E000322001F0E5F940F20251332001F0E0F9F6
:1057F00040F20751342001F0DBF94FF401713520FC
:1058000001F0D6F94FF40171362001F0D1F940F2E0
:105810000251372001F0CCF940F202313A2001F078
:10582000C7F940F202313B2001F0C2F900212320E8
:1058300001F0BEF90021242001F0BAF94FF4004133
:10584000252001F0B5F900214F2001F0B1F9002128
:105850004E2001F0ADF9F0E3FE48808844F231516A
:1058600088427DD10121002001F0A2F90A2001F037
:1058700035FF41F22861102001F09AF90E21122023
:1058800001F096F940F63921132001F091F90A2030
:1058900001F024FF4021112001F08AF95021152048
:1058A00001F086F90A2001F019FF1E21122001F0F3
:1058B0007FF90A2001F012FF4FF4B151102001F0DE
:1058C00077F942F63921132001F072F90A2001F02C
:1058D00005FF4FF48071012001F06AF94FF4407127
:1058E000022001F065F941F23801032001F060F96E
:1058F00040F20221082001F05BF908210A2001F0A2
:1059000057F90021302001F053F940F202413120D3
:1059100001F04EF94FF48371322001F049F940F261
:105920000351332001F044F94FF48271342001F027
:105930003FF940F20131352001F03AF940F20771A8
:10594000362001F035F940F20531372001F030F909
:105950004FF40271382001F02BF940F60B7100E092
:105960003CE0392001F024F90221412001F020F926
:105970004FF41C51602001F01BF90121612001F05E
:1059800017F94FF40471902001F012F94FF485716A
:10599000922001F00DF90421932001F009F94FF450
:1059A0008071A02001F004F90121072001F000F925
:1059B0002121072001F0FCF82321072001F0F8F84D
:1059C0003321072001F0F4F840F23311072001F0F1
:1059D000EFF80021A02001F0EBF82EE39D4880882D
:1059E00044F2355188427CD13021152001F0E0F895
:1059F00010219A2001F0DCF82021112001F0D8F8C4
:105A000043F22841102001F0D3F80221122001F0C6
:105A1000CFF841F23801132001F0CAF8282001F034
:105A20005DFE1221084601F0C3F8282001F056FE61
:105A300043F22041102001F0BBF843F2380113205B
:105A400001F0B6F8462001F049FE0021302001F0B7
:105A5000AFF840F20241312001F0AAF840F20731DC
:105A6000322001F0A5F84FF44171332001F0A0F885
:105A70000421342001F09CF840F20141352001F06E
:105A800097F840F20771362001F092F840F20531A4
:105A9000372001F08DF84FF4C261382001F088F80A
:105AA0004FF4C261392001F083F84FF48071012076
:105AB00001F07EF84FF44071022001F079F841F2D4
:105AC0003001032001F074F840F60801082001F0CD
:105AD0006FF808210A2001F06BF84FF41C51602088
